:100000000C9474010C94A5010C94A5010C94A50109
:100010000C94A5010C94A5010C94A5010C94A501C8
:100020000C94A5010C94A5010C94A5010C94A501B8
:100030000C94A5010C94A5010C94A5010C94A501A8
:100040000C94A5010C94A5010C94A5010C94A50198
:100050000C94A5010C94A5010C94A5010C949C078B
:100060000C94A5010C94A5010C94A5010C94A50178
:100070000C94A5010C94A5010C94A5010C94A50168
:100080000C94A5010C94A5010C94A5010C94A50158
:100090000C94A5010C94A5010C94A5010C940403E7
:1000A0000C94A5010C94A5010C94A5010C94A50138
:1000B0000C94A5010C94A5010C94A5010C94A50128
:1000C0000C94A5010C94A5010C94A5010C94A50118
:1000D0000C94A5010C94A5010C94A5010C94A50108
:1000E0000C94A501A008B508B508B408B508920895
:1000F000B508B508B5089408B508B508A708B2084A
:10010000B008B508B508B508AE0809070C07FB0626
:10011000FF0603074307100714071A071E072207E5
:1001200028072C073007430736073A073E070C9489
:1001300003070C9456020C94B0080C9486020C949D
:10014000790A0C94B2080C94EA020C94FB010C940A
:1001500022070C9409070C9492080C9410070C9435
:1001600094080C943A070C9436070C944D050C94A3
:10017000FF060C9443070C94AE080C9485020C9473
:100180001E020C947F0A0C94FB060C94C9020C947A
:10019000B4080C941A070C9426020C943E070C9495
:1001A000D9010C94A7080C9430070C940C070C94FC
:1001B00028070C94B5080C94FA010C942C070C94A5
:1001C0000A020C94F6040C94ED010C94A0080C9413
:1001D0001E070C94140732303A31363A3136004D4E
:1001E000617920203420323031380000002200258F
:1001F0000028002B002E0031003400020100000511
:100200000108010B01050505050705080808080296
:100210000202020A0A08080404040401010101019F
:100220000101010303030303030303040707070C8E
:100230000C0C0C0C0C0C0C02020202060606060644
:100240000606060B0B0B0B0B0B0B0B0102102020F1
:10025000080810204010204080020102010804021A
:100260000101020408102040808040201008040290
:1002700001800402018040201008040201080402E9
:1002800001010204081020408001020408102040EF
:100290008000000A0B02090C0D0E08070304010080
:1002A000000000000000000000000000000000004E
:1002B000000000000000000000000000001211100B
:1002C000000000000000000000000000000000002E
:1002D000000000000000001F1C1F1E1F1E1F1F1E0D
:1002E0001F1E1F007F0A790A11241FBECFEFD1E223
:1002F000DEBFCDBF00E00CBF23E0A4E9B2E001C047
:100300001D92A838B207E1F712E0A0E0B2E0E0EDFC
:10031000FBE100E00BBF02C007900D92A439B107CA
:10032000D9F711E0C3E7D1E000E006C02197010949
:10033000802FFE010E94A30BC237D10780E008077F
:10034000A9F70E94E6070C94D60D0C94000085EDE9
:100350008093BC008091BC0084FDFCCF10924703C9
:1003600008954091B602262F30E0240F311D21322E
:100370003105DCF4209147032430C9F4FC0180E00E
:1003800090E0861758F43091B6022191DC01AC560A
:10039000BD4FA30FB11D2C930196F3CF8091B602F0
:1003A000680F6093B60280E0089581E0089582E0CE
:1003B000089521E001C0220F6A95EAF7DC011C963E
:1003C0002C931C971A965C934E931997ED91FC9180
:1003D0000484F585E02D60E01994DC01ED91FC9139
:1003E0000684F785E02D41E0199581E090E00895BD
:1003F000089508950895E091DC028091DB02E817EA
:1004000030F4F0E0EF5FFC4F808190E008958FEFD3
:100410009FEF08959091DC028091DB02981750F4D1
:10042000E92FF0E0EF5FFC4F208130E09F5F909379
:10043000DC0202C02FEF3FEFC90108958091DB027B
:1004400090E02091DC02821B91090895CF92DF9207
:10045000EF92FF920F931F93CF93DF937C01262F90
:10046000972F8A018091DD02882391F0C62FD72F24
:100470006E01C40ED51ECC15DD0571F06991D70152
:10048000ED91FC910190F081E02DC7011995F3CF1A
:10049000642F822F0E94B101C801DF91CF911F917B
:1004A0000F91FF90EF90DF90CF900895CF93DF935F
:1004B0001F92CDB7DEB769832091DD022223D1F0F0
:1004C00020910003203240F021E030E0FC01338332
:1004D000228380E090E015C08091DE02E82FF0E0FA
:1004E000E152FD4F998190838F5F8093DE0280936C
:1004F000000305C061E0CE0101960E94B10181E0D8
:1005000090E00F90DF91CF910895089580E090E002
:100510000895FC01908190539A3008F090E0818119
:1005200080532AE0929F800D112408950E94C10DEE
:10053000EF92FF920F931F93CF938C01FC0175965E
:1005400084E0C0E060FF02C09081C92B66958150B5
:1005500031968111F7CF413011F4F8014489F80147
:100560008585C82BC42B7801FEE0EF0EF11CF80145
:1005700062896C2BC7010E945207F801628960955D
:100580006C23C701CF911F910F91FF90EF900C94B6
:1005900052070F931F93CF93DF93062F0F704230B4
:1005A00019F440E0602F10C0142F262FEC0130E02A
:1005B000B90184E0759567958A95E1F7CE010E94AF
:1005C0009802412F602FCE01DF91CF911F910F91A3
:1005D0000C949802FC0184858823A9F0218532853A
:1005E0002115310519F4611106C007C0213031050C
:1005F00021F4611102C0858701C015866585CF0190
:100600000E960C94520708951F920F920FB60F92F8
:1006100011240BB60F922F933F934F935F936F93D9
:100620007F938F939F93AF93BF93EF93FF938091AB
:10063000B900887F803609F49CC068F5883209F4D7
:100640005BC090F4803109F454C038F4882309F475
:10065000F6C0883009F44DC0F6C0883109F44CC0AA
:10066000803209F45DC0EFC0803409F468C048F4FA
:10067000803309F455C0883309F0E5C08093450301
:10068000D8C0803509F44FC0883509F45DC088347E
:1006900009F0D9C0D6C0883909F4C7C0A8F4883792
:1006A00009F467C038F4883609F463C0803709F468
:1006B00060C0C9C0883809F4B8C0803909F45FC087
:1006C000803809F0C0C05BC0803B09F486C038F4B4
:1006D000803A09F466C0883A09F47FC0B4C0803C0F
:1006E00009F4A7C0883C09F4A4C0883B09F48AC077
:1006F000AAC08091420310C09091440380914303AB
:10070000981770F5E091440381E08E0F80934403C5
:10071000F0E0EF5DFC4F80818093BB0085EC86C0EC
:10072000809345038EC0E091440381E08E0F809357
:1007300044038091BB00F0E0EF5DFC4F808390911B
:100740004403809143036EC0E091440381E08E0F27
:10075000809344038091BB00F0E0EF5DFC4F808309
:100760008091460381116DC081E08093410384EA4A
:1007700061C083E0809347031092DA02CFCF80916B
:10078000DA02803208F051C0E091DA0281E08E0F87
:100790008093DA028091BB00F0E0E654FD4F808345
:1007A000BDCF85EC8093BC00109247038091DA02A4
:1007B000803230F4E091DA02F0E0E654FD4F10822E
:1007C0006091DA0270E0E091B802F091B9028AEB30
:1007D00092E019951092DA0236C084E080934703C4
:1007E0001092B7021092B602E091B402F091B502F5
:1007F00019958091B602811105C081E08093B602FF
:1008000010929402E091B70281E08E0F8093B702BC
:10081000F0E0EC56FD4F80818093BB009091B702D1
:100820008091B602981708F479CF85E88093BC00D0
:100830000AC085EC8093BC001092470304C010925C
:1008400045030E94A701FF91EF91BF91AF919F9146
:100850008F917F916F915F914F913F912F910F9069
:100860000BBE0F900FBE0F901F901895DC01ED91FD
:10087000FC910684F785E02D40E019948F929F92B9
:10088000AF92BF92CF92DF92EF92FF920F931F939E
:10089000CF93DF93EC01423018F08C8188608C8319
:1008A0004F836887222329F0413019F48C818460BA
:1008B0008C830E9477074B015C0184E6C82ED12C03
:1008C000E12CF12C0E947707DC01CB0188199909F2
:1008D000AA09BB09883E9340A105B10558F021E063
:1008E000C21AD108E108F10888EE880E83E0981E4C
:1008F000A11CB11CC114D104E104F10419F76C81ED
:1009000064FD31C0E881F9810684F785E02D42E07D
:1009100063E0CE0119950BE416E4C8010197F1F7E5
:10092000E881F9810684F785E02D42E063E0CE019D
:100930001995C8010197F1F7E881F9810684F785D7
:10094000E02D42E063E0CE01199583E592E0019746
:10095000F1F7E881F9810684F785E02D42E062E055
:10096000CE01199516C06062CE010E9436048BE458
:1009700096E40197F1F76C816062CE010E94360423
:1009800083E592E00197F1F76C816062CE010E94ED
:1009900036046C816062CE010E94360484E08D834F
:1009A0006CE0CE010E94360461E0CE010E94360464
:1009B0008BE39FE10197F1F782E08E8366E0CE0141
:1009C0000E943604E881F9810484F585E02D6FEFFB
:1009D000CE01DF91CF911F910F91FF90EF90DF90AB
:1009E000CF90BF90AF909F908F901994FF920F93EC
:1009F0001F93CF93DF93EC01162F042FF22E8B85DC
:100A0000888B1092DC021092DB021092DE021092B0
:100A100000031092470381E0809346031092410344
:100A200084E10E94DB0685E10E94DB068091B9002B
:100A30008E7F8093B9008091B9008D7F8093B9003B
:100A400088E48093B80085E48093BC0061E08889E5
:100A50000E943A061092DC028093DB0291E0811141
:100A600001C090E0998B88E493E00E940A028E878F
:100A70008989882339F01F861C8260E0CE010E969A
:100A80000E9452072F2D402F612FCE01DF91CF9171
:100A90001F910F91FF900C943E04CF92DF92EF9242
:100AA000FF920F931F93CF93DF936C017A018B0119
:100AB000C0E0D0E0CE15DF0589F0D8016D918D0141
:100AC000D601ED91FC910190F081E02DC6011995C0
:100AD000892B11F47E0102C02196ECCFC701DF9172
:100AE000CF911F910F91FF90EF90DF90CF900895DD
:100AF000009769F0FC0101900020E9F73197AF0100
:100B0000481B590BBC0184E593E00C944D0580E033
:100B100090E008958F929F92AF92BF920F931F9390
:100B2000CF93DF93CDB7DEB7A1970FB6F894DEBFB2
:100B30000FBECDBF19A2423008F44AE08E010F5D0E
:100B40001F4F842E912CA12CB12CA50194010E9441
:100B5000810BE62FB901CA0101501109EA3014F4E2
:100B6000E05D01C0E95CD801EC93232B242B252BFD
:100B700061F7C8010E947805A1960FB6F894DEBF10
:100B80000FBECDBFDF91CF911F910F91BF90AF905E
:100B90009F908F900895E0915403F0915503019038
:100BA000F081E02D682F84E593E01994CF92DF92D5
:100BB000EF92FF92CF93DF9397FF19C06B017C01F7
:100BC0008DE20E94CB05EC0166277727CB016C19DB
:100BD0007D098E099F094AE00E948A058C0F9D1F9E
:100BE000DF91CF91FF90EF90DF90CF9008954AE092
:100BF000DF91CF91FF90EF90DF90CF900C948A051A
:100C0000CF93DF93CDB7DEB728970FB6F894DEBF4A
:100C10000FBECDBF1D8290E49E8324E12F8324E587
:100C2000288719829A8390E19B8390E59C83909119
:100C30005B03691710F06FEF690F40915C03262F7B
:100C400030E0FE01E20FF31F403121F4943011F443
:100C5000918101C09581682F690F606884E593E0F8
:100C600028960FB6F894DEBF0FBECDBFDF91CF91AF
:100C70000C943604909147039111FCCF91E090932E
:100C80004703909346032FEF2093450310924403AC
:100C9000260F209343039093420390914203880FC1
:100CA000892B8093420380914103813061F410923B
:100CB0004103809142038093BB008091BC0083FD7F
:100CC000F8CF85EC01C085EE8093BC00809147038E
:100CD0008130E1F380914403861710F4609144035E
:100CE000A1E2B3E021E033E0F9018E2F821B8617E9
:100CF00018F48D918193F9CF862F0895382F209184
:100D000000039091FF02213208F049C0809147030F
:100D10008111FCCF42E040934703309346033FEFFD
:100D2000309345031092440320934303AFEDB2E0A8
:100D300041E253E0FA013E2F341B321718F43D9183
:100D40003193F9CF1092420320914203990F922BD5
:100D50009093420390914103913061F410924103CA
:100D6000909142039093BB009091BC0093FDF8CF0B
:100D700095EC01C095EE9093BC00909147039230A2
:100D8000E1F3909145039F3F79F0809145038032D4
:100D900041F080914503803331F084E005C081E06B
:100DA00003C082E001C083E01092DE0210920003D3
:100DB0001092DD02089590E0FC01EF56FD4F449142
:100DC000FC01E55BFD4F2491FC01EB5FFD4F94912D
:100DD000992309F466C0442309F455C050E0FA0190
:100DE0003197E231F10508F04EC08827EB57FF4FED
:100DF0008F4F0C94A30B809180008F7707C0809158
:100E000080008F7D03C080918000877F8093800069
:100E10003AC084B58F7702C084B58F7D84BD33C05E
:100E20008091B0008F7703C08091B0008F7D809358
:100E3000B00029C0809190008F7707C0809190000A
:100E40008F7D03C080919000877F809390001BC0AE
:100E50008091A0008F7707C08091A0008F7D03C094
:100E60008091A000877F8093A0000DC08091200119
:100E70008F7707C0809120018F7D03C08091200172
:100E8000877F80932001E92FF0E0EE0FFF1FE551EF
:100E9000FE4FA591B4918FB7F894EC912E2B2C9323
:100EA0008FBF0895FC0123812223C1F09181909589
:100EB00069236083828191E09093DD028093FF0239
:100EC0001092DE021092000388E493E00E94560222
:100ED00081E00E947E06282F30E002C020E030E052
:100EE00081E090E0232B11F080E090E008953FB77F
:100EF000F8948091800390918103A0918203B09136
:100F0000830326B5A89B05C02F3F19F00196A11DAC
:100F1000B11D3FBFBA2FA92F982F8827820F911D8F
:100F2000A11DB11DBC01CD0142E0660F771F881FD6
:100F3000991F4A95D1F708951F920F920FB60F92FD
:100F400011242F933F938F939F93AF93BF938091DF
:100F50007C0390917D03A0917E03B0917F0330913B
:100F60007B0323E0230F2D3720F40196A11DB11D33
:100F700005C026E8230F0296A11DB11D20937B0317
:100F800080937C0390937D03A0937E03B0937F03B3
:100F90008091800390918103A0918203B09183039B
:100FA0000196A11DB11D8093800390938103A093AE
:100FB0008203B0938303BF91AF919F918F913F9133
:100FC0002F910F900FBE0F901F901895CF93DF9326
:100FD000CDB7DEB72B970FB6F894DEBF0FBECDBFEF
:100FE000789484B5826084BD84B5816084BD85B504
:100FF000826085BD85B5816085BD80916E00816010
:1010000080936E00109281008091810082608093B5
:1010100081008091810081608093810080918000B7
:101020008160809380008091B10084608093B100E2
:101030008091B00081608093B000809191008260C7
:1010400080939100809191008160809391008091C4
:1010500090008160809390008091A10082608093D5
:10106000A1008091A10081608093A1008091A000E7
:1010700081608093A0008091210182608093210192
:101080008091210181608093210180912001816004
:101090008093200180917A00846080937A0080910F
:1010A0007A00826080937A0080917A0081608093D8
:1010B0007A0080917A00806880937A001092C10053
:1010C00020E044E064E184E593E00E94F60440E01F
:1010D00050E063E084E593E00E94D90161E084E59B
:1010E00093E00E94EA024BE050E06FED71E0CE0128
:1010F00001960E94580BCE010A960E948902082F81
:10110000E9818E2FEE0F990BAA0BBB0BFC01E1546A
:10111000F109E331F10548F58827EE58FF4F8F4F6D
:101120000C94A30B12E021C08A81813639F08B81A7
:101130008E3611F017E019C016E017C011E015C087
:101140008B81823711F018E010C014E00EC08B8143
:10115000823711F015E009C013E007C019E005C09F
:101160001AE003C01BE001C01CE0CE0105960E94FE
:101170008902E82E48E050E066ED71E0CE0101966C
:101180000E94580BCE0101960E948902D82ECE01F2
:1011900004960E948902C82ECE0107960E948902F9
:1011A000B82E81E08093DD0288E68093FF021092E2
:1011B000DE021092000360E088E493E00E94560291
:1011C0009AE0F92E8B2D6F2D0E94610B482F880F0E
:1011D000480F440F642F6B0D88E493E00E94560281
:1011E0008C2D6F2D0E94610B382F880F380F330F15
:1011F000632F6C0D88E493E00E9456028D2D6F2DB5
:101200000E94610B282F880F280F220F622F6D0D6F
:1012100088E493E00E94560260E088E493E00E9434
:1012200056028E2D6F2D0E94610B982F880F980FFC
:10123000990F692F6E0D88E493E00E945602812F6A
:101240006F2D0E94610B682F660F860F880F682F25
:10125000610F88E493E00E945602802F6F2D0E9458
:10126000610B682F660F680F660F600F88E493E0CC
:101270000E94560281E00E947E0601E087ED92E026
:10128000902E981A2DE6E22EFF24F39437E0C32E19
:10129000D12C40E0A42E40E0B42E58E6852E1AEF63
:1012A0008CE0782E0093DD028092FF021092DE0225
:1012B0001092000360E088E493E00E94560281E00F
:1012C0000E947E0667E088E60E943A061092DC02E1
:1012D0008093DB0288E493E00E940A028F77982FC4
:1012E00092959F70582E919F500C112488E493E0A2
:1012F0000E940A029C01332774E0359527957A9560
:10130000E1F7482E129F400C112488E493E00E94DC
:101310000A029C013327E4E035952795EA95E1F729
:10132000682E129F600C112488E493E00E940A0248
:1013300088E493E00E940A029C013327F4E035958B
:101340002795FA95E1F7382E129F300C112488E486
:1013500093E00E940A029C013327A4E0359527956B
:10136000AA95E1F7282E129F200C112488E493E01F
:101370000E940A029C013327B4E035952795BA955F
:10138000E1F7129F800D112480936D0320926E036C
:1013900030926F0360927003409271035092720317
:1013A00061E080E00E94000689E0861520F080E878
:1013B00092E00E947805662D70E080E090E00E9447
:1013C000D6058AE30E94CB056090710361E083E05B
:1013D0000E940006862D90E00A9724F480E892E0AF
:1013E0000E947805662D70E080E090E00E94D605AE
:1013F0008AE30E94CB056090720361E086E00E9460
:101400000006862D90E00A9724F480E892E00E947E
:101410007805662D70E080E090E00E94D60560E0DF
:1014200080E00E94000660916E0390916D03492F49
:1014300050E020916F0330E0E7EDF2E0892D8E0F50
:10144000861728F48491280F311D3196F7CF633029
:1014500020F0937011F42F5F3F4F4E9DC0014F9DC0
:10146000900D5E9D900D112405964D5F5F4F569532
:10147000479556954795840F951F820F931FB60188
:101480000E946D0B789E9001799E300D1124C90148
:1014900080509E4F0E94780582E892E00E94780575
:1014A00060916F0370E080E090E04AE00E948A055E
:1014B0008FE20E94CB0560916E0370E080E090E0C7
:1014C0004AE00E948A058FE20E94CB0560916D037D
:1014D00070E06053784F072E000C880B990B4AE0A0
:1014E0000E948A05A114B10409F4DCCE0E94000018
:1014F000D6CE80917503909176030C94400C109297
:101500004B0310924A0388EE93E0A0E0B0E0809392
:101510004C0390934D03A0934E03B0934F038EE57D
:1015200092E09093490380934803109276031092BF
:101530007503109278031092770310927A03109239
:1015400079036FE070E080E090E00E94D80C009793
:10155000A1F090937603809375032EE030E03093F2
:101560007803209377032091790330917A03232B1A
:1015700009F093C0FC01108290C080917503909196
:101580007603009711F00E94400C1092760310929F
:10159000750310927A0310927903109278031092D7
:1015A00077038091790390917A03909374038093E9
:1015B000730380E1809372038CE18093710386E072
:1015C0008093700320E081E697E9E3E9FEEF31E0E4
:1015D000422F437009F030E061E0620F432F50E08A
:1015E000DA01A359BE4F8A179B0738F09F01241BCD
:1015F000350B820F931F262FEACF20936D0321E036
:10160000E22FF0E0EA52FD4FE491332319F022304B
:1016100009F4EF5FF0E041E0420F8E179F0720F0E2
:101620008E1B9F0B242FECCF20936E038F5F809334
:101630006F03109257031092560380E792E0909345
:10164000550380935403109264038FEF80936303D8
:1016500010926203109265038FE380935F031092F0
:1016600060031092610310925E0310925D0384E0A8
:101670008093660382E08093670381E08093680330
:1016800080E18093690380E280936A0380E4809321
:101690006B0380E880936C0308952EE030E0309374
:1016A0007A032093790364E872E00E94CF0D79CF2A
:1016B000FB01DC0102C005900D9241505040D8F76B
:1016C0000895991B79E004C0991F961708F0961B9E
:1016D000881F7A95C9F780950895AA1BBB1B51E115
:1016E00007C0AA1FBB1FA617B70710F0A61BB70B92
:1016F000881F991F5A95A9F780959095BC01CD0137
:101700000895A1E21A2EAA1BBB1BFD010DC0AA1F42
:10171000BB1FEE1FFF1FA217B307E407F50720F05A
:10172000A21BB30BE40BF50B661F771F881F991FD5
:101730001A9469F760957095809590959B01AC011E
:10174000BD01CF010895EE0FFF1F881F8BBF0790CB
:10175000F691E02D1994CF93DF938230910510F428
:1017600082E090E0E0918603F091870320E030E092
:10177000C0E0D0E0309711F14081518148175907FE
:10178000C0F04817590761F482819381209719F0BE
:101790009B838A832BC0909387038093860326C004
:1017A0002115310519F04217530718F49A01BE01AB
:1017B000DF01EF010280F381E02DDCCF211531053F
:1017C00009F1281B390B2430310590F412968D91C4
:1017D0009C9113976115710521F0FB01938382831E
:1017E00004C09093870380938603FD01329644C022
:1017F000FD01E20FF31F81939193225031092D9344
:101800003C933AC02091840330918503232B41F40B
:101810002091560230915702309385032093840320
:1018200020915402309155022115310541F42DB714
:101830003EB74091580250915902241B350BE0915C
:101840008403F0918503E217F307A0F42E1B3F0BEE
:101850002817390778F0AC014E5F5F4F2417350722
:1018600048F04E0F5F1F509385034093840381938C
:10187000919302C0E0E0F0E0CF01DF91CF910895B5
:101880000F931F93CF93DF93009709F48CC0FC0153
:1018900032971382128200918603109187030115FB
:1018A000110581F420813181820F931F20918403DF
:1018B000309185032817390779F5F0938503E09374
:1018C000840371C0D80140E050E0AE17BF0750F468
:1018D00012962D913C911397AD012115310509F117
:1018E000D901F3CF9D01DA013383228360817181B5
:1018F000860F971F8217930769F4EC0128813981BD
:10190000260F371F2E5F3F4F318320838A819B81B3
:1019100093838283452B29F4F0938703E093860316
:1019200042C01396FC93EE931297ED0149915991A1
:101930009E01240F351FE217F30771F48081918116
:10194000840F951F029611969C938E9382819381AA
:1019500013969C938E931297E0E0F0E0D8011296D4
:101960008D919C911397009719F0F8018C01F6CF97
:101970008D919C9198012E5F3F4F820F931F209174
:101980008403309185032817390769F4309729F4C7
:10199000109287031092860302C013821282109362
:1019A000850300938403DF91CF911F910F910895D8
:1019B0006F927F928F929F92AF92BF92CF92DF925F
:1019C000EF92FF920F931F93CF93DF93EC01009759
:1019D00089F4CB01DF91CF911F910F91FF90EF9090
:1019E000DF90CF90BF90AF909F908F907F906F903F
:1019F0000C94AB0BFC01E60FF71F9C012250310940
:101A0000E217F30708F4ACC0D9010D911C911197AE
:101A100006171707B0F00530110508F49FC0C8017C
:101A200004978617970708F499C002501109061BFE
:101A3000170B019311936D937C93CF010E94400C7F
:101A40008DC05B01A01AB10A4C01800E911EA091BD
:101A50008603B091870340E050E0E12CF12C109711
:101A600009F44AC0A815B905D1F56D907C9011977D
:101A7000630182E0C80ED11CCA14DB0480F1A3010B
:101A80004A195B096A0182E0C80ED11C1296BC900B
:101A900012971396AC91B5E0CB16D10440F0B28208
:101AA000A38351834083D9016D937C930AC00E5F59
:101AB0001F4FC301800F911FF90191838083EB2D8C
:101AC000FA2FE114F10431F0D7011396FC93EE9351
:101AD000129744C0F0938703E09386033FC08D9133
:101AE0009C9111974817590708F4AC017D01129693
:101AF0000D90BC91A02DB3CF80918403909185036C
:101B000088159905E1F446175707C8F480915402E7
:101B100090915502009741F48DB79EB740915802BD
:101B200050915902841B950BE817F907C8F4F093FC
:101B30008503E0938403F901718360830FC0CB01B7
:101B40000E94AB0B7C01009759F0A801BE010E94D6
:101B5000C60DCE010E94400CC70104C0CE0102C0D8
:101B600080E090E0DF91CF911F910F91FF90EF9077
:101B7000DF90CF90BF90AF909F908F907F906F90AD
:101B8000089581E090E0F8940C94D60DFB01DC01FF
:101B900002C001900D9241505040D8F70895FB01CA
:101BA000DC0101900D920020E1F7089511E0C3E7F8
:101BB000D1E000E006C0802FFE010E94A30B219619
:101BC000011DC437D10780E00807A9F7F894FFCFBB
:101BD00053756E0000000000000000004D6F6E00A5
:101BE00000000000000000005475650000000000C7
:101BF00000000000576564000000000000000000C5
:101C00005468750000000000000000004672690082
:101C1000000000000000000053617400000000009C
:101C20000000000000008803800000000000560251
:101C300026028602FA011E020A02FB0100000000D1
:101C4000ED014D0586028502F604D901EA02C902BA
:101C50003000200053656C656374206F7074696F89
:041C60006E7300009F
:00000001FF
