:100000000C943E010C946F010C946F010C946F01E1
:100010000C946F010C946F010C946F010C946F01A0
:100020000C946F010C946F010C946F010C946F0190
:100030000C946F010C946F010C946F010C946F0180
:100040000C946F010C946F010C946F010C946F0170
:100050000C946F010C946F010C946F010C948F063B
:100060000C946F010C946F010C946F010C946F0150
:100070000C946F010C946F010C946F010C946F0140
:100080000C946F010C946F010C946F010C946F0130
:100090000C946F010C946F010C946F010C945D052E
:1000A0000C946F010C946F010C946F010C946F0110
:1000B0000C946F010C946F010C946F010C946F0100
:1000C0000C946F010C946F010C946F010C946F01F0
:1000D0000C946F010C946F010C946F010C946F01E0
:1000E0000C946F019F01A201910195019901D90121
:1000F000A601AA01B001B401B801BE01C201C60146
:10010000D901CC01D001D4010C94A6010C94B0010A
:100110000C9499010C941B020C94C1040C94A4033C
:100120000C94D9060C94DF030C94BE010C94CC0102
:100130000C9451080C942A020C9476020C94C2017F
:100140000C94D0010C94D4010C9446020C949101AF
:100150000C949F010C94A2010C9495010C94F30350
:100160000C94B8010C94B4010C94C0040C94D90103
:100170000C94C6010C94C5030C94C4040C9448035D
:100180000C94AA010C941A020C943E020000220066
:10019000250028002B002E00310034000201000051
:1001A000050108010B0105050505070508080808F4
:1001B000020202020A0A08080404040401010101FF
:1001C00001010101030303030303030304070707FA
:1001D0000C0C0C0C0C0C0C0C02020202060606069F
:1001E000060606060B0B0B0B0B0B0B0B010210206C
:1001F000200808102040102040800201020108045D
:1002000002010102040810204080804020100804F0
:100210000201800402018040201008040201080449
:10022000020101020408102040800102040810208D
:10023000408000000A0B02090C0D0E0807030401A0
:1002400000000000000000000000000000000000AE
:10025000000000000000000000000000000012117B
:10026000100000000000000000000000000000007E
:100270000000000000000000D906510811241FBE34
:10028000CFEFD1E2DEBFCDBF00E00CBF23E0ACE397
:10029000B2E001C01D92AA32B207E1F712E0A0E07D
:1002A000B2E0E8E3F5E100E00BBF02C007900D9279
:1002B000AC33B107D9F711E0CDE3D1E000E006C0DF
:1002C00021970109802FFE010E945708CC33D107E6
:1002D00080E00807A9F70E9471070C948A0A0C9421
:1002E000000090E0FC01EE5CFD4F4491FC01E45104
:1002F000FE4F2491FC01EA55FE4F9491992309F495
:1003000066C0442309F455C050E0FA013197E23148
:10031000F10508F04EC08827EE58FF4F8F4F0C9420
:100320005708809180008F7707C0809180008F7D73
:1003300003C080918000877F809380003AC084B59D
:100340008F7702C084B58F7D84BD33C08091B000AB
:100350008F7703C08091B0008F7D8093B00029C05B
:10036000809190008F7707C0809190008F7D03C0AF
:1003700080919000877F809390001BC08091A000A7
:100380008F7707C08091A0008F7D03C08091A0006F
:10039000877F8093A0000DC0809120018F7707C0D8
:1003A000809120018F7D03C080912001877F809301
:1003B0002001E92FF0E0EE0FFF1FE457FE4FA5915B
:1003C000B4918FB7F894EC912E2B2C938FBF089596
:1003D00085ED8093BC008091BC0084FDFCCF109221
:1003E000D30208954091AD02262F30E0240F311D35
:1003F00021323105DCF42091D3022430C9F4FC0110
:1004000080E090E0861758F43091AD022191DC0134
:10041000A557BD4FA30FB11D2C930196F3CF80912B
:10042000AD02680F6093AD0280E0089581E0089509
:1004300082E008950895E0918A0280918902E81788
:1004400030F4F0E0E759FD4F808190E008958FEFA0
:100450009FEF089590918A0280918902981750F435
:10046000E92FF0E0E759FD4F208130E09F5F909346
:100470008A0202C02FEF3FEFC901089580918902DF
:1004800090E020918A02821B91090895CF92DF9219
:10049000EF92FF920F931F93CF93DF937C01262F50
:1004A000972F8A0180916802882391F0C62FD72F59
:1004B0006E01C40ED51ECC15DD0571F06991D70112
:1004C000ED91FC910190F081E02DC7011995F3CFDA
:1004D000642F822F0E94F201C801DF91CF911F91FA
:1004E0000F91FF90EF90DF90CF900895CF93DF931F
:1004F0001F92CDB7DEB76983209168022223D1F025
:1005000020916702203240F021E030E0FC0133838B
:10051000228380E090E015C080916602E82FF0E031
:10052000EA5BFD4F998190838F5F80936602809391
:10053000670205C061E0CE0101960E94F20181E0F0
:1005400090E00F90DF91CF910895CF93FC0123812C
:10055000222309F46EC09181909569236083C28142
:1005600081E080936802C093450210926602109267
:10057000670289EF92E00E947602809167028132E1
:1005800008F04AC02091D3022111FCCF92E0909351
:10059000D30291E09093D5029FEF9093D2021092F4
:1005A000F7028093F602A6E4B2E046ED52E0FA01CB
:1005B0009E2F941B981718F49D919193F9CF109248
:1005C000F8028091F802CC0FC82BC093F8028091FA
:1005D000D402813061F41092D4028091F8028093A9
:1005E000BB008091BC0083FDF8CF85EC01C085EE97
:1005F0008093BC008091D3028230E1F38091D202DB
:100600008F3F79F08091D202803241F08091D20206
:10061000803331F024E005C021E003C022E001C0B6
:1006200023E010926602109267021092680230E096
:1006300002C020E030E081E090E0232B11F080E068
:1006400090E0CF9108953FB7F89480914102909146
:100650004202A0914302B091440226B5A89B05C076
:100660002F3F19F00196A11DB11D3FBFBA2FA92F31
:10067000982F8827820F911DA11DB11DBC01CD01AE
:1006800042E0660F771F881F991F4A95D1F708959A
:10069000CF92DF92EF92FF920F931F93CF93DF934E
:1006A0006C017A018B01C0E0D0E0CE15DF0589F046
:1006B000D8016D918D01D601ED91FC910190F081F1
:1006C000E02DC6011995892B11F47E0102C02196F7
:1006D000ECCFC701DF91CF911F910F91FF90EF9069
:1006E000DF90CF900895EF92FF920F931F93CF93D7
:1006F0008C01FC01759684E0C0E060FF02C090812F
:10070000C92B6695815031968111F7CF413011F494
:10071000F8014489F8018585C82BC42B7801FEE0D7
:10072000EF0EF11CF80162896C2BC7010E94A50233
:10073000F801628960956C23C701CF911F910F91D9
:10074000FF90EF900C94A5020F931F93CF93DF932C
:10075000062F0F70423019F440E0602F10C0142FA4
:10076000262FEC0130E0B90184E0759567958A95F4
:10077000E1F7CE010E947303412F602FCE01DF917C
:10078000CF911F910F910C947303FC0184858823F2
:10079000A9F0218532852115310519F4611106C0B2
:1007A00007C02130310521F4611102C0858701C0E5
:1007B00015866585CF010E960C94A502089521E05B
:1007C00001C0220F6A95EAF7DC011C962C931C9756
:1007D0001A965C934E931997ED91FC910484F585DC
:1007E000E02D60E01994DC01ED91FC910684F78521
:1007F000E02D41E0199581E090E00895DC01ED9154
:10080000FC910684F785E02D40E019948F929F9229
:10081000AF92BF92CF92DF92EF92FF920F931F930E
:10082000CF93DF93EC01423018F08C8188608C8389
:100830004F836887222329F0413019F48C8184602A
:100840008C830E9423034B015C0184E6C82ED12CCB
:10085000E12CF12C0E942303DC01CB0188199909BA
:10086000AA09BB09883E9340A105B10558F021E0D3
:10087000C21AD108E108F10888EE880E83E0981EBC
:10088000A11CB11CC114D104E104F10419F76C815D
:1008900064FD31C0E881F9810684F785E02D42E0EE
:1008A00063E0CE0119950BE416E4C8010197F1F756
:1008B000E881F9810684F785E02D42E063E0CE010E
:1008C0001995C8010197F1F7E881F9810684F78548
:1008D000E02D42E063E0CE01199583E592E00197B7
:1008E000F1F7E881F9810684F785E02D42E062E0C6
:1008F000CE01199516C06062CE010E94FE038BE402
:1009000096E40197F1F76C816062CE010E94FE03CC
:1009100083E592E00197F1F76C816062CE010E945D
:10092000FE036C816062CE010E94FE0384E08D8331
:100930006CE0CE010E94FE0361E0CE010E94FE0346
:100940008BE39FE10197F1F782E08E8366E0CE01B1
:100950000E94FE03E881F9810484F585E02D6FEFA4
:10096000CE01DF91CF911F910F91FF90EF90DF901B
:10097000CF90BF90AF909F908F9019940895089555
:10098000089580E090E00895FF920F931F93CF9316
:10099000DF93EC01162F042FF22E8B85888B10929B
:1009A0008A021092890210926602109267021092D7
:1009B000D30281E08093D5021092D40284E10E9498
:1009C000710185E10E9471018091B9008E7F809351
:1009D000B9008091B9008D7F8093B90088E480933D
:1009E000B80085E48093BC0088899091D30291116E
:1009F000FCCF91E09093D3029093D5022FEF2093F8
:100A0000D2021092F7021092F6029093F80290919F
:100A1000F802880F892B8093F8028091D4028130EC
:100A200061F41092D4028091F8028093BB0080910F
:100A3000BC0083FDF8CF85EC01C085EE8093BC003F
:100A40008091D3028130E1F38091F702811103C0DC
:100A50008091F70201C081E0A6EDB2E029E632E024
:100A6000F9019E2F921B981718F49D919193F9CF3D
:100A700010928A028093890291E0811101C090E076
:100A8000998B89EF92E00E942A028E8789898823B8
:100A900039F01F861C8260E0CE010E960E94A502EE
:100AA0002F2D402F612FCE01DF91CF911F910F91FC
:100AB000FF900C9406040E94750A1F920F920FB6C5
:100AC0000F9211240BB60F922F933F934F935F9386
:100AD0006F937F938F939F93AF93BF93EF93FF9306
:100AE0008091B900887F803609F49CC068F588320F
:100AF00009F45BC090F4803109F454C038F48823C1
:100B000009F4F6C0883009F44DC0F6C0883109F404
:100B10004CC0803209F45DC0EFC0803409F468C075
:100B200048F4803309F455C0883309F0E5C0809358
:100B3000D202D8C0803509F44FC0883509F45DC0B1
:100B4000883409F0D9C0D6C0883909F4C7C0A8F4E0
:100B5000883709F467C038F4883609F463C08037F1
:100B600009F460C0C9C0883809F4B8C0803909F4F4
:100B70005FC0803809F0C0C05BC0803B09F486C00C
:100B800038F4803A09F466C0883A09F47FC0B4C0EA
:100B9000803C09F4A7C0883C09F4A4C0883B09F450
:100BA0008AC0AAC08091F80210C09091F70280918B
:100BB000F602981770F5E091F70281E08E0F8093AE
:100BC000F702F0E0EA52FD4F80818093BB0085EC94
:100BD00086C08093D2028EC0E091F70281E08E0F32
:100BE0008093F7028091BB00F0E0EA52FD4F8083D2
:100BF0009091F7028091F6026EC0E091F70281E0D9
:100C00008E0F8093F7028091BB00F0E0EA52FD4F17
:100C100080838091D50281116DC081E08093D402E0
:100C200084EA61C083E08093D3021092D102CFCFD7
:100C30008091D102803208F051C0E091D10281E070
:100C40008E0F8093D1028091BB00F0E0EF54FD4FF6
:100C50008083BDCF85EC8093BC001092D30280913D
:100C6000D102803230F4E091D102F0E0EF54FD4F38
:100C700010826091D10270E0E091AF02F091B00279
:100C800081EB92E019951092D10236C084E08093F6
:100C9000D3021092AE021092AD02E091AB02F0913D
:100CA000AC0219958091AD02811105C081E080935D
:100CB000AD0210928B02E091AE0281E08E0F809324
:100CC000AE02F0E0E557FD4F80818093BB0090912C
:100CD000AE028091AD02981708F479CF85E8809331
:100CE000BC000AC085EC8093BC001092D30204C003
:100CF0001092D2020E94E801FF91EF91BF91AF9153
:100D00009F918F917F916F915F914F913F912F9123
:100D10000F900BBE0F900FBE0F901F9018951F9253
:100D20000F920FB60F9211242F933F938F939F939F
:100D3000AF93BF9380913D0290913E02A0913F02FC
:100D4000B091400230913C0223E0230F2D3720F474
:100D50000196A11DB11D05C026E8230F0296A11D15
:100D6000B11D20933C0280933D0290933E02A093DC
:100D70003F02B09340028091410290914202A091C3
:100D80004302B09144020196A11DB11D809341021E
:100D900090934202A0934302B0934402BF91AF915B
:100DA0009F918F913F912F910F900FBE0F901F90A9
:100DB00018951092FC021092FB0288EE93E0A0E0DE
:100DC000B0E08093FD029093FE02A093FF02B093E7
:100DD00000038AE092E09093FA028093F902109265
:100DE000100310920F038CE192E090930E03809316
:100DF0000D0310921D038FEF80931C0310921B03B1
:100E000010921E038FE3809318031092190310921F
:100E10001A03109217031092160384E080931F03A5
:100E200082E08093200381E08093210380E180931E
:100E3000220380E28093230380E48093240380E8EC
:100E400080932503109208031092070310920A035F
:100E50001092090310920C0310920B036FE070E0E4
:100E600080E090E00E948C09009799F0909308032D
:100E7000809307032EE030E030930A0320930903A8
:100E800020910B0330910C03232B01F5FC01108200
:100E90001DC08091070390910803009711F00E94F4
:100EA000F408109208031092070310920C0310929A
:100EB0000B0310920A031092090380910B03909187
:100EC0000C03909306038093050308952EE030E011
:100ED00030930C0320930B036CE272E00E94830AB0
:100EE000ECCFCF93DF93CDB7DEB728970FB6F8944A
:100EF000DEBF0FBECDBF789484B5826084BD84B55B
:100F0000816084BD85B5826085BD85B5816085BD04
:100F100080916E00816080936E00109281008091BC
:100F20008100826080938100809181008160809344
:100F30008100809180008160809380008091B10069
:100F400084608093B1008091B00081608093B00094
:100F500080919100826080939100809191008160E6
:100F600080939100809190008160809390008091A7
:100F7000A10082608093A1008091A1008160809394
:100F8000A1008091A00081608093A0008091210148
:100F900082608093210180912101816080932101F1
:100FA0008091200181608093200180917A0084608B
:100FB00080937A0080917A00826080937A00809199
:100FC0007A00816080937A0080917A0080688093B3
:100FD0007A001092C10020E044E064E18DE093E0EB
:100FE0000E94C40440E050E063E08DE093E00E9482
:100FF000DF0361E08DE093E00E94C50364E1E62E2B
:10100000F12C70E0C72E70E0D72E10E404E134E537
:10101000B32E40E1A42E50E5952E809105039091CA
:1010200006039701281B390BC90137FD01969595D9
:1010300087951D821E830F83B88619821A83AB821F
:101040009C824091140321E0411120E021955091B0
:10105000150330E0503129F4443019F4E1E0F0E0B8
:1010600002C0E5E0F0E0EC0FFD1FE20FF31F60812E
:10107000680F60688DE093E00E94FE0340910B03CF
:1010800050910C0360910703709108038DE093E089
:101090000E944803C114D10409F4BFCF0E9400008C
:1010A000B6CF80910703909108030C94F408EE0FDB
:1010B000FF1F881F8BBF0790F691E02D1994CF93E7
:1010C000DF938230910510F482E090E0E0912803F4
:1010D000F091290320E030E0C0E0D0E0309711F13A
:1010E0004081518148175907C0F04817590761F4EA
:1010F00082819381209719F09B838A832BC09093E0
:1011000029038093280326C02115310519F04217C1
:10111000530718F49A01BE01DF01EF010280F38149
:10112000E02DDCCF2115310509F1281B390B2430C6
:10113000310590F412968D919C911397611571056C
:1011400021F0FB019383828304C090932903809351
:101150002803FD01329644C0FD01E20FF31F819385
:101160009193225031092D933C933AC0209126034C
:1011700030912703232B41F4209102023091030286
:10118000309327032093260320910002309101021F
:101190002115310541F42DB73EB74091040250911D
:1011A0000502241B350BE0912603F0912703E2177B
:1011B000F307A0F42E1B3F0B2817390778F0AC017A
:1011C0004E5F5F4F2417350748F04E0F5F1F509357
:1011D0002703409326038193919302C0E0E0F0E05F
:1011E000CF01DF91CF9108950F931F93CF93DF939A
:1011F000009709F48CC0FC0132971382128200918F
:101200002803109129030115110581F420813181F2
:10121000820F931F20912603309127032817390747
:1012200079F5F0932703E093260371C0D80140E0DD
:1012300050E0AE17BF0750F412962D913C911397D2
:10124000AD012115310509F1D901F3CF9D01DA0175
:101250003383228360817181860F971F82179307E2
:1012600069F4EC0128813981260F371F2E5F3F4F2B
:10127000318320838A819B8193838283452B29F448
:10128000F0932903E093280342C01396FC93EE9356
:101290001297ED01499159919E01240F351FE217D4
:1012A000F30771F480819181840F951F0296119646
:1012B0009C938E938281938113969C938E93129725
:1012C000E0E0F0E0D80112968D919C911397009781
:1012D00019F0F8018C01F6CF8D919C9198012E5F49
:1012E0003F4F820F931F2091260330912703281729
:1012F000390769F4309729F41092290310922803D2
:1013000002C0138212821093270300932603DF91F9
:10131000CF911F910F9108956F927F928F929F921C
:10132000AF92BF92CF92DF92EF92FF920F931F93F3
:10133000CF93DF93EC01009789F4CB01DF91CF913C
:101340001F910F91FF90EF90DF90CF90BF90AF90E3
:101350009F908F907F906F900C945F08FC01E60F38
:10136000F71F9C0122503109E217F30708F4ACC0C3
:10137000D9010D911C91119706171707B0F0053090
:10138000110508F49FC0C80104978617970708F451
:1013900099C002501109061B170B019311936D930D
:1013A0007C93CF010E94F4088DC05B01A01AB10AA2
:1013B0004C01800E911EA0912803B091290340E0BA
:1013C00050E0E12CF12C109709F44AC0A815B9059A
:1013D000D1F56D907C901197630182E0C80ED11C0D
:1013E000CA14DB0480F1A3014A195B096A0182E097
:1013F000C80ED11C1296BC9012971396AC91B5E012
:10140000CB16D10440F0B282A38351834083D9012B
:101410006D937C930AC00E5F1F4FC301800F911F15
:10142000F90191838083EB2DFA2FE114F10431F05F
:10143000D7011396FC93EE93129744C0F0932903BF
:10144000E09328033FC08D919C911197481759074D
:1014500008F4AC017D0112960D90BC91A02DB3CF84
:10146000809126039091270388159905E1F446178A
:101470005707C8F48091000290910102009741F44F
:101480008DB79EB74091040250910502841B950BC5
:10149000E817F907C8F4F0932703E0932603F9014E
:1014A000718360830FC0CB010E945F087C010097AD
:1014B00059F0A801BE010E947A0ACE010E94F408E8
:1014C000C70104C0CE0102C080E090E0DF91CF915F
:1014D0001F910F91FF90EF90DF90CF90BF90AF9052
:1014E0009F908F907F906F90089581E090E0F894A6
:1014F0000C948A0AFB01DC0102C001900D9241505C
:101500005040D8F70895FB01DC0101900D920020B6
:10151000E1F7089511E0CDE3D1E000E006C0802FAF
:10152000FE010E9457082196011DCE33D10780E0AD
:081530000807A9F7F894FFCFAA
:1015380000002A0380000000000076024602C10471
:101548001A023E022A021B0200000000F3034803AD
:10155800C104C004C404DF03C503A40353656C6558
:0C1568006374206F7074696F6E73000074
:00000001FF
